{
  "_format": "hh-sol-artifact-1",
  "contractName": "SupplyChainEscrow",
  "sourceName": "contracts/SupplyChainEscrow.sol",
  "abi": [
    {
      "anonymous": false,
      "inputs": [
        {
          "indexed": true,
          "internalType": "uint256",
          "name": "productId",
          "type": "uint256"
        },
        {
          "indexed": false,
          "internalType": "uint256",
          "name": "amountWei",
          "type": "uint256"
        },
        {
          "indexed": false,
          "internalType": "address",
          "name": "supplier",
          "type": "address"
        }
      ],
      "name": "PaymentReleased",
      "type": "event"
    },
    {
      "anonymous": false,
      "inputs": [
        {
          "indexed": true,
          "internalType": "uint256",
          "name": "productId",
          "type": "uint256"
        },
        {
          "indexed": false,
          "internalType": "string",
          "name": "name",
          "type": "string"
        },
        {
          "indexed": false,
          "internalType": "string",
          "name": "origin",
          "type": "string"
        },
        {
          "indexed": false,
          "internalType": "uint256",
          "name": "amountWei",
          "type": "uint256"
        }
      ],
      "name": "ProductCreated",
      "type": "event"
    },
    {
      "anonymous": false,
      "inputs": [
        {
          "indexed": true,
          "internalType": "uint256",
          "name": "productId",
          "type": "uint256"
        },
        {
          "indexed": false,
          "internalType": "enum SupplyChainEscrow.Stage",
          "name": "stage",
          "type": "uint8"
        }
      ],
      "name": "StageAdvanced",
      "type": "event"
    },
    {
      "inputs": [
        {
          "internalType": "uint256",
          "name": "productId",
          "type": "uint256"
        }
      ],
      "name": "advanceStage",
      "outputs": [],
      "stateMutability": "nonpayable",
      "type": "function"
    },
    {
      "inputs": [
        {
          "internalType": "string",
          "name": "name",
          "type": "string"
        },
        {
          "internalType": "string",
          "name": "origin",
          "type": "string"
        },
        {
          "internalType": "string",
          "name": "ipfsCid",
          "type": "string"
        },
        {
          "internalType": "address",
          "name": "supplier",
          "type": "address"
        }
      ],
      "name": "createProduct",
      "outputs": [
        {
          "internalType": "uint256",
          "name": "",
          "type": "uint256"
        }
      ],
      "stateMutability": "payable",
      "type": "function"
    },
    {
      "inputs": [
        {
          "internalType": "uint256",
          "name": "productId",
          "type": "uint256"
        }
      ],
      "name": "getProduct",
      "outputs": [
        {
          "components": [
            {
              "internalType": "uint256",
              "name": "id",
              "type": "uint256"
            },
            {
              "internalType": "string",
              "name": "name",
              "type": "string"
            },
            {
              "internalType": "string",
              "name": "origin",
              "type": "string"
            },
            {
              "internalType": "string",
              "name": "ipfsCid",
              "type": "string"
            },
            {
              "internalType": "uint256",
              "name": "amountWei",
              "type": "uint256"
            },
            {
              "internalType": "address",
              "name": "payer",
              "type": "address"
            },
            {
              "internalType": "address",
              "name": "supplier",
              "type": "address"
            },
            {
              "internalType": "enum SupplyChainEscrow.Stage",
              "name": "stage",
              "type": "uint8"
            },
            {
              "internalType": "bool",
              "name": "paid",
              "type": "bool"
            }
          ],
          "internalType": "struct SupplyChainEscrow.Product",
          "name": "",
          "type": "tuple"
        }
      ],
      "stateMutability": "view",
      "type": "function"
    },
    {
      "inputs": [],
      "name": "nextProductId",
      "outputs": [
        {
          "internalType": "uint256",
          "name": "",
          "type": "uint256"
        }
      ],
      "stateMutability": "view",
      "type": "function"
    }
  ],
  "bytecode": "0x608060405234801561001057600080fd5b50611898806100206000396000f3fe60806040526004361061003f5760003560e01c80630ef2c76b146100445780632e534dff146100745780634de91a631461009d578063b9db15b4146100c8575b600080fd5b61005e60048036038101906100599190610ea8565b610105565b60405161006b9190610f7c565b60405180910390f35b34801561008057600080fd5b5061009b60048036038101906100969190610fc3565b6103ec565b005b3480156100a957600080fd5b506100b26108eb565b6040516100bf9190610f7c565b60405180910390f35b3480156100d457600080fd5b506100ef60048036038101906100ea9190610fc3565b6108f1565b6040516100fc91906111f2565b60405180910390f35b6000803411610149576040517f08c379a000000000000000000000000000000000000000000000000000000000815260040161014090611271565b60405180910390fd5b600073ffffffffffffffffffffffffffffffffffffffff168273ffffffffffffffffffffffffffffffffffffffff16036101b8576040517f08c379a00000000000000000000000000000000000000000000000000000000081526004016101af906112dd565b60405180910390fd5b6000805490506040518061012001604052808281526020018781526020018681526020018581526020013481526020013373ffffffffffffffffffffffffffffffffffffffff1681526020018473ffffffffffffffffffffffffffffffffffffffff168152602001600060038111156102345761023361108d565b5b815260200160001515815250600160008381526020019081526020016000206000820151816000015560208201518160010190816102729190611509565b5060408201518160020190816102889190611509565b50606082015181600301908161029e9190611509565b506080820151816004015560a08201518160050160006101000a81548173ffffffffffffffffffffffffffffffffffffffff021916908373ffffffffffffffffffffffffffffffffffffffff16021790555060c08201518160060160006101000a81548173ffffffffffffffffffffffffffffffffffffffff021916908373ffffffffffffffffffffffffffffffffffffffff16021790555060e08201518160060160146101000a81548160ff021916908360038111156103625761036161108d565b5b02179055506101008201518160060160156101000a81548160ff021916908315150217905550905050600160008082825461039d919061160a565b92505081905550807fdc0293f45084abb7ce038fc35b8dae40e71d5b4f9ab40cab90bf1ea6032935f78787346040516103d893929190611677565b60405180910390a280915050949350505050565b6000600160008381526020019081526020016000209050600073ffffffffffffffffffffffffffffffffffffffff168160060160009054906101000a900473ffffffffffffffffffffffffffffffffffffffff1673ffffffffffffffffffffffffffffffffffffffff1603610496576040517f08c379a000000000000000000000000000000000000000000000000000000000815260040161048d90611708565b60405180910390fd5b8060060160009054906101000a900473ffffffffffffffffffffffffffffffffffffffff1673ffffffffffffffffffffffffffffffffffffffff163373ffffffffffffffffffffffffffffffffffffffff16148061054357508060050160009054906101000a900473ffffffffffffffffffffffffffffffffffffffff1673ffffffffffffffffffffffffffffffffffffffff163373ffffffffffffffffffffffffffffffffffffffff16145b610582576040517f08c379a000000000000000000000000000000000000000000000000000000000815260040161057990611774565b60405180910390fd5b6003808111156105955761059461108d565b5b8160060160149054906101000a900460ff1660038111156105b9576105b861108d565b5b036105f9576040517f08c379a00000000000000000000000000000000000000000000000000000000081526004016105f0906117e0565b60405180910390fd5b6000600381111561060d5761060c61108d565b5b8160060160149054906101000a900460ff1660038111156106315761063061108d565b5b036106b25760018160060160146101000a81548160ff0219169083600381111561065e5761065d61108d565b5b0217905550817f338b8976706f9da67298dddfa1ea4ff7d99cce68b9ca39c4f348994f8e2124a88260060160149054906101000a900460ff166040516106a4919061180f565b60405180910390a2506108e8565b600160038111156106c6576106c561108d565b5b8160060160149054906101000a900460ff1660038111156106ea576106e961108d565b5b0361076b5760028160060160146101000a81548160ff021916908360038111156107175761071661108d565b5b0217905550817f338b8976706f9da67298dddfa1ea4ff7d99cce68b9ca39c4f348994f8e2124a88260060160149054906101000a900460ff1660405161075d919061180f565b60405180910390a2506108e8565b60038160060160146101000a81548160ff021916908360038111156107935761079261108d565b5b0217905550817f338b8976706f9da67298dddfa1ea4ff7d99cce68b9ca39c4f348994f8e2124a88260060160149054906101000a900460ff166040516107d9919061180f565b60405180910390a28060060160159054906101000a900460ff166108e65760018160060160156101000a81548160ff0219169083151502179055508060060160009054906101000a900473ffffffffffffffffffffffffffffffffffffffff1673ffffffffffffffffffffffffffffffffffffffff166108fc82600401549081150290604051600060405180830381858888f19350505050158015610882573d6000803e3d6000fd5b50817fb398ec266cae176bd0a8d43b35200da0bb13c5620ad5e1663abdc3967a4ee50f82600401548360060160009054906101000a900473ffffffffffffffffffffffffffffffffffffffff166040516108dd929190611839565b60405180910390a25b505b50565b60005481565b6108f9610c64565b60006001600084815260200190815260200160002060405180610120016040529081600082015481526020016001820180546109349061132c565b80601f01602080910402602001604051908101604052809291908181526020018280546109609061132c565b80156109ad5780601f10610982576101008083540402835291602001916109ad565b820191906000526020600020905b81548152906001019060200180831161099057829003601f168201915b505050505081526020016002820180546109c69061132c565b80601f01602080910402602001604051908101604052809291908181526020018280546109f29061132c565b8015610a3f5780601f10610a1457610100808354040283529160200191610a3f565b820191906000526020600020905b815481529060010190602001808311610a2257829003601f168201915b50505050508152602001600382018054610a589061132c565b80601f0160208091040260200160405190810160405280929190818152602001828054610a849061132c565b8015610ad15780601f10610aa657610100808354040283529160200191610ad1565b820191906000526020600020905b815481529060010190602001808311610ab457829003601f168201915b50505050508152602001600482015481526020016005820160009054906101000a900473ffffffffffffffffffffffffffffffffffffffff1673ffffffffffffffffffffffffffffffffffffffff1673ffffffffffffffffffffffffffffffffffffffff1681526020016006820160009054906101000a900473ffffffffffffffffffffffffffffffffffffffff1673ffffffffffffffffffffffffffffffffffffffff1673ffffffffffffffffffffffffffffffffffffffff1681526020016006820160149054906101000a900460ff166003811115610bb557610bb461108d565b5b6003811115610bc757610bc661108d565b5b81526020016006820160159054906101000a900460ff1615151515815250509050600073ffffffffffffffffffffffffffffffffffffffff168160c0015173ffffffffffffffffffffffffffffffffffffffff1603610c5b576040517f08c379a0000000000000000000000000000000000000000000000000000000008152600401610c5290611708565b60405180910390fd5b80915050919050565b6040518061012001604052806000815260200160608152602001606081526020016060815260200160008152602001600073ffffffffffffffffffffffffffffffffffffffff168152602001600073ffffffffffffffffffffffffffffffffffffffff16815260200160006003811115610ce157610ce061108d565b5b81526020016000151581525090565b6000604051905090565b600080fd5b600080fd5b600080fd5b600080fd5b6000601f19601f8301169050919050565b7f4e487b7100000000000000000000000000000000000000000000000000000000600052604160045260246000fd5b610d5782610d0e565b810181811067ffffffffffffffff82111715610d7657610d75610d1f565b5b80604052505050565b6000610d89610cf0565b9050610d958282610d4e565b919050565b600067ffffffffffffffff821115610db557610db4610d1f565b5b610dbe82610d0e565b9050602081019050919050565b82818337600083830152505050565b6000610ded610de884610d9a565b610d7f565b905082815260208101848484011115610e0957610e08610d09565b5b610e14848285610dcb565b509392505050565b600082601f830112610e3157610e30610d04565b5b8135610e41848260208601610dda565b91505092915050565b600073ffffffffffffffffffffffffffffffffffffffff82169050919050565b6000610e7582610e4a565b9050919050565b610e8581610e6a565b8114610e9057600080fd5b50565b600081359050610ea281610e7c565b92915050565b60008060008060808587031215610ec257610ec1610cfa565b5b600085013567ffffffffffffffff811115610ee057610edf610cff565b5b610eec87828801610e1c565b945050602085013567ffffffffffffffff811115610f0d57610f0c610cff565b5b610f1987828801610e1c565b935050604085013567ffffffffffffffff811115610f3a57610f39610cff565b5b610f4687828801610e1c565b9250506060610f5787828801610e93565b91505092959194509250565b6000819050919050565b610f7681610f63565b82525050565b6000602082019050610f916000830184610f6d565b92915050565b610fa081610f63565b8114610fab57600080fd5b50565b600081359050610fbd81610f97565b92915050565b600060208284031215610fd957610fd8610cfa565b5b6000610fe784828501610fae565b91505092915050565b610ff981610f63565b82525050565b600081519050919050565b600082825260208201905092915050565b60005b8381101561103957808201518184015260208101905061101e565b60008484015250505050565b600061105082610fff565b61105a818561100a565b935061106a81856020860161101b565b61107381610d0e565b840191505092915050565b61108781610e6a565b82525050565b7f4e487b7100000000000000000000000000000000000000000000000000000000600052602160045260246000fd5b600481106110cd576110cc61108d565b5b50565b60008190506110de826110bc565b919050565b60006110ee826110d0565b9050919050565b6110fe816110e3565b82525050565b60008115159050919050565b61111981611104565b82525050565b6000610120830160008301516111386000860182610ff0565b50602083015184820360208601526111508282611045565b9150506040830151848203604086015261116a8282611045565b915050606083015184820360608601526111848282611045565b91505060808301516111996080860182610ff0565b5060a08301516111ac60a086018261107e565b5060c08301516111bf60c086018261107e565b5060e08301516111d260e08601826110f5565b506101008301516111e7610100860182611110565b508091505092915050565b6000602082019050818103600083015261120c818461111f565b905092915050565b600082825260208201905092915050565b7f5061796d656e7420616d6f756e74207265717569726564000000000000000000600082015250565b600061125b601783611214565b915061126682611225565b602082019050919050565b6000602082019050818103600083015261128a8161124e565b9050919050565b7f496e76616c696420737570706c69657200000000000000000000000000000000600082015250565b60006112c7601083611214565b91506112d282611291565b602082019050919050565b600060208201905081810360008301526112f6816112ba565b9050919050565b7f4e487b7100000000000000000000000000000000000000000000000000000000600052602260045260246000fd5b6000600282049050600182168061134457607f821691505b602082108103611357576113566112fd565b5b50919050565b60008190508160005260206000209050919050565b60006020601f8301049050919050565b600082821b905092915050565b6000600883026113bf7fffffffffffffffffffffffffffffffffffffffffffffffffffffffffffffffff82611382565b6113c98683611382565b95508019841693508086168417925050509392505050565b6000819050919050565b60006114066114016113fc84610f63565b6113e1565b610f63565b9050919050565b6000819050919050565b611420836113eb565b61143461142c8261140d565b84845461138f565b825550505050565b600090565b61144961143c565b611454818484611417565b505050565b5b818110156114785761146d600082611441565b60018101905061145a565b5050565b601f8211156114bd5761148e8161135d565b61149784611372565b810160208510156114a6578190505b6114ba6114b285611372565b830182611459565b50505b505050565b600082821c905092915050565b60006114e0600019846008026114c2565b1980831691505092915050565b60006114f983836114cf565b9150826002028217905092915050565b61151282610fff565b67ffffffffffffffff81111561152b5761152a610d1f565b5b611535825461132c565b61154082828561147c565b600060209050601f8311600181146115735760008415611561578287015190505b61156b85826114ed565b8655506115d3565b601f1984166115818661135d565b60005b828110156115a957848901518255600182019150602085019450602081019050611584565b868310156115c657848901516115c2601f8916826114cf565b8355505b6001600288020188555050505b505050505050565b7f4e487b7100000000000000000000000000000000000000000000000000000000600052601160045260246000fd5b600061161582610f63565b915061162083610f63565b9250828201905080821115611638576116376115db565b5b92915050565b600061164982610fff565b6116538185611214565b935061166381856020860161101b565b61166c81610d0e565b840191505092915050565b60006060820190508181036000830152611691818661163e565b905081810360208301526116a5818561163e565b90506116b46040830184610f6d565b949350505050565b7f50726f64756374206e6f7420666f756e64000000000000000000000000000000600082015250565b60006116f2601183611214565b91506116fd826116bc565b602082019050919050565b60006020820190508181036000830152611721816116e5565b9050919050565b7f4e6f7420617574686f72697a6564000000000000000000000000000000000000600082015250565b600061175e600e83611214565b915061176982611728565b602082019050919050565b6000602082019050818103600083015261178d81611751565b9050919050565b7f416c72656164792064656c697665726564000000000000000000000000000000600082015250565b60006117ca601183611214565b91506117d582611794565b602082019050919050565b600060208201905081810360008301526117f9816117bd565b9050919050565b611809816110e3565b82525050565b60006020820190506118246000830184611800565b92915050565b61183381610e6a565b82525050565b600060408201905061184e6000830185610f6d565b61185b602083018461182a565b939250505056fea2646970667358221220e6ef736e8694ecf7c21e2fb2834e5aa5c6bfca6c5605c85adc2519d7a26fe09464736f6c63430008180033",
  "linkReferences": {},
  "deployedLinkReferences": {}
}